:060000000A128A11122809
:10000800FE00030E83120313E4000408E5000A0847
:10001800E6007F08E7000A128A15002F0A128A11E3
:1000280015280A128A11FD270A128A11EA000A12F3
:100038008A11FE270A128A11EB00E801E9018301FF
:100048000A128A15B12E8312031323088039A800D7
:100058002308F9007907AE00A21F33283428352871
:100068002E142E08031939283A2849282E0A031D68
:100078003E283F2847280030A3000030A200003067
:10008800A1000030A000A21751280030A3000030C2
:10009800A2000030A1000030A00027088039F90034
:1000A8007908A8062708F9007907AD00A61F5D287A
:1000B8005E285F282D142D080319632864287328E7
:1000C8002D0A031D6828692871280030A700003010
:1000D800A6000030A5000030A400A6177B28003039
:1000E800A7000030A6000030A5000030A4002D08AD
:1000F80003197F28802885282E08031D8428852831
:100108008E280030A3000030A2000030A10000308B
:10011800A0006B2B2008F00026080A128A15D925A2
:100128000A128A11710883120313B4007008B3000D
:100138003308F900FA01FB01FC017C08AC007B08DC
:10014800AB007A08AA007908A9003408F900FA0176
:10015800FB01FC017C08B2007B08B1007A08B00002
:100168007908AF002108F00025080A128A15D92558
:100178000A128A11710883120313B4007008B300BD
:100188003308F900FA01FB01FC017908A9077A088C
:1001980003110318013E0319D228AA077B0803118B
:1001A8000318013E0319D928AB077C08031103186B
:1001B800013E0319E028AC073408F900FA01FB01F5
:1001C800FC017908AF077A0803110318013E0319E7
:1001D800EE28B0077B0803110318013E0319F52820
:1001E800B1077C0803110318013E0319FC28B20764
:1001F8002208F00024080A128A15D9250A128A1141
:10020800710883120313B4007008B3003308F900AF
:10021800FA01FB01FC017908A9077A080311031800
:10022800013E03191829AA077B0803110318013E88
:1002380003191F29AB077C0803110318013E031992
:100248002629AC073408F900FA01FB01FC017908FA
:10025800AF077A0803110318013E03193429B007C0
:100268007B0803110318013E03193B29B1077C08D9
:1002780003110318013E03194229B2070830F90097
:100288000310A90DAA0DAB0DAC0DF90B44292108DB
:10029800F00024080A128A15D9250A128A11710851
:1002A80083120313B4007008B3003308F90034084C
:1002B800FA00FB01FC017908A9077A080311031861
:1002C800013E03196829AA077B0803110318013E98
:1002D80003196F29AB077C0803110318013E0319A2
:1002E8007629AC072008F00025080A128A15D925B6
:1002F8000A128A11710883120313B4007008B3003C
:100308003308F9003408FA00FB01FC017908A90751
:100318007A0803110318013E03199329AA077B08D9
:1003280003110318013E03199A29AB077C0803112E
:100338000318013E0319A129AC070830F90003107E
:10034800A90DAA0DAB0DAC0DF90BA3292008F000DF
:1003580024080A128A15D9250A128A1171088312EB
:100368000313B4007008B3003308F9003408FA0026
:10037800FB01FC017908A9077A0803110318013E5B
:100388000319C729AA077B0803110318013E03199B
:10039800CE29AB077C0803110318013E0319D529A0
:1003A800AC072108F00026080A128A15D9250A1276
:1003B8008A11710883120313B4007008B30033085C
:1003C800F9003408FA00FB01FC017908AF077A0844
:1003D80003110318013E0319F229B0077B08031122
:1003E8000318013E0319F929B1077C080311031802
:1003F800013E0319002AB2072208F00025080A1254
:100408008A15D9250A128A11710883120313B400B8
:100418007008B3003308F9003408FA00FB01FC0146
:100428007908AF077A0803110318013E03191D2A3A
:10043800B0077B0803110318013E0319242AB107EA
:100448007C0803110318013E03192B2AB20722085E
:10045800F00026080A128A15D9250A128A1171088D
:1004680083120313B4007008B3003308F90034088A
:10047800FA00FB01FC0108300310F90DFA0DFB0D21
:10048800FC0DFF3E031D402A7908AF077A080311C7
:100498000318013E0319512AB0077B0803110318FA
:1004A800013E0319582AB1077C0803110318013EBD
:1004B80003195F2AB2072908F9002A08FA002B084D
:1004C800FB002C08FC0018300310FC0CFB0CFA0C89
:1004D800F90CFF3E031D682A7908AF077A08031153
:1004E8000318013E0319792AB0077B080311031882
:1004F800013E0319802AB1077C0803110318013E45
:100508000319872AB2070830F9000310A90DAA0DAC
:10051800AB0DAC0DF90B892A2E082D07F900FA014D
:10052800FA0D7908823EB3007A080318013EFF3EAF
:10053800B400BB2A0130F9000310AF0DB00DB10DA6
:10054800B20DF90BA02AAC1FAA2AAB2AAC2A2F1489
:100558000130F9000310A90DAA0DAB0DAC0DF90B74
:10056800AE2AFF30B3070318B40AFF30B407B11F2F
:10057800BE2ABF2A9E2AAD01AC1FC32AC42AE02A7C
:10058800FF302905F900FF302A05FA00FF302B0556
:10059800FB007F302C05FC007C087B047A0479047E
:1005A8000319D72AD82ADB2AAD01AD0AE02A2F1C65
:1005B800DE2ADF2AE02AD82A2D080319E42AE52AA8
:1005C800162B0130AF07003003180130B007003098
:1005D80003180130B107003003180130B207321C8C
:1005E800F62AF72A162B2F08F9003008FA003108E6
:1005F800FB003208FC000130FD007C0DFC0CFB0CFC
:10060800FA0CF90CFD0B012B7C08B2007B08B10039
:100618007A08B0007908AF000130B3070318B40AAC
:100628000030B4073408803AFF0080307F02031D91
:100638001F2BFF303302031C222B232B2E2B7F3042
:1006480083120313B2008030B1000030B0000030D4
:10065800AF005F2B831203133408803AFF00803009
:100668007F02031D392B0130330203183C2B3D2B2D
:10067800492B003083120313B2000030B100003060
:10068800B0000030AF00A8015F2B831203133308BA
:10069800AE00FF30AF05FF30B0057F30B105003048
:1006A800B2052E1C582B592B5A2BB1172E08F900BE
:1006B8000310790CB2002808F9007908B20432084E
:1006C800A3003108A2003008A1002F08A0000800EC
:1006D800831203133C088039C6003C08BD003D075F
:1006E800CD00BB1F782B792B7A2B4D144D0803199D
:1006F8007E2B7F2B8F2B4D0A031D832B842B8C2B5A
:100708000030BC000030BB000030BA000030B90037
:10071800BB17BC01972B0030BC000030BB00003079
:10072800BA000030B90038088039BD003D08C60657
:100738003808BD003D07CE00B71FA32BA42BA52B5F
:100748004E144E080319A92BAA2BBA2B4E0A031DC7
:10075800AE2BAF2BB72B0030B8000030B7000030FD
:10076800B6000030B500B717B801C22B0030B8008A
:100778000030B7000030B6000030B5003808370444
:1007880036043504031DC92BCA2BE32B0030BC00EB
:100798000030BB000030BA000030B9008030BB0424
:1007A8007F30BC044608BD003D08BC043C08B800C6
:1007B8003B08B7003A08B6003908B5003E2D4D0889
:1007C800031DE72BE82BF12B0030B8000030B700F1
:1007D8000030B6000030B5003E2D4D08BD00BE010A
:1007E8003E08C0004E083D02BF00031CC0033F087E
:1007F8007F3EC70040080318013E003EC8003C0881
:10080800C5003B08C4003A08C3003908C2000030DC
:10081800BC000030BB000030BA000030B900003026
:10082800CC000030CB000030CA000030C900CE0137
:10083800672C4E080319212C222C422C0130BD00B4
:100848000310C20DC30DC40DC50DBD0B242C013002
:10085800BD000310B90DBA0DBB0DBC0DBD0B2D2C81
:10086800CC1F372C382C392C39140130BD0003101B
:10087800C90DCA0DCB0DCC0DBD0B3B2C380845025C
:10088800031D502C37084402031D502C3608430220
:10089800031D502C35084202031C532C542C632C86
:1008A8004C173508C2023608031C360FC302370836
:1008B800031C370FC4023808031C380FC502013067
:1008C800BD003D08CE071A304E02031C6C2C6D2C5F
:1008D8001D2C45084404430442040319742C752C48
:1008E800942C4914942C0130BD000310B90DBA0D95
:1008F800BB0DBC0DBD0B792CCC1F832C842C852CF7
:1009080039140130BD000310C90DCA0DCB0DCC0D33
:10091800BD0B872CFF30C7070318C80AFF30C8076C
:10092800BB1F972C982C772CCE01CC1F9C2C9D2C70
:10093800B92CFF304905BD00FF304A05BE00FF3025
:100948004B05BF007F304C05C00040083F043E0403
:100958003D040319B02CB12CB42CCE01CE0AB92C0D
:10096800391CB72CB82CB92CB12C4E080319BD2C46
:10097800BE2CEF2C0130B907003003180130BA073C
:10098800003003180130BB07003003180130BC07E2
:100998003C1CCF2CD02CEF2C3908BD003A08BE00E7
:1009A8003B08BF003C08C0000130C100400DC00C2E
:1009B800BF0CBE0CBD0CC10BDA2C4008BC003F08B4
:1009C800BB003E08BA003D08B9000130C70703184C
:1009D800C80A0030C8074808803AFF0080307F0204
:1009E800031DF82CFF304702031CFB2CFC2C0A2D9E
:1009F800FF3083120313C7000030C8000030BC006A
:100A08000030BB000030BA000030B9008312031375
:100A18004808803AFF0080307F02031D152D013001
:100A280047020318182D192D262D83120313C70109
:100A3800C8010030BC000030BB000030BA000030F4
:100A4800B900C601831203134708CD004D1C2D2D94
:100A58002E2D302DBB17342D7F30BD003D08BB0532
:100A68004D08BD0003103D0CBC004608BD003D0804
:100A7800BC04DA2B080083120313AB002130A60054
:100A8800042E25302C0603194A2D4B2D552D2B08E5
:100A980084002C08831380000130A3002308AB07CF
:100AA800042EA7010130A007FF30200784000A1296
:100AB8008A1500200A128A11AC00A300A401240898
:100AC800003A0319682D042E2308003A0319142E3E
:100AD800643A0319732D0D3A0319732D042E260851
:100AE800840083130008A900840A0008AA000230C1
:100AF800A3002308A607AA1F822D832D8C2D03305F
:100B0800A3002308A704A909AA09A90A0319AA0A7C
:100B1800AC01AC0A2C08A3002307013E84000A128A
:100B28008A1500200A128A11A4000A128A150020C8
:100B38000A128A11A50025082A02031DA52D2408DA
:100B480029020318A82DA92DAA2DB42D0130A30020
:100B58002308AC0705302C06031DB32DB42D8E2DAC
:100B6800270803390319B92DBA2DC32D2B08840082
:100B78002D30831380000130A3002308AB072C0815
:100B8800A800FB2D0A30F8000030F9002808A3005F
:100B98002307013E84000A128A1500200A128A11CE
:100BA800F0000A128A1500200A128A11F1002A0898
:100BB800F3002908F2000A128A156D260A128A1112
:100BC8007108FB007008FA000A128A1533260A1207
:100BD8008A117808303E83120313AC002B08840076
:100BE8002C08831380000130A3002308AB07FF30D3
:100BF800A3002308A807280A031D032E042EC62DC8
:100C08000130A007FF30200784000A128A1500204F
:100C18000A128A11AC002C08031D132E142E452D20
:100C28002B088400831380010800F8007808031952
:100C38001E2E1F2E332EF31F222E232E332E700925
:100C4800FA007109FB007209FC007309FD00FA0A39
:100C58000319FB0A0319FC0A0319FD0A3B2E730842
:100C6800FD007208FC007108FB007008FA007308A8
:100C7800720471047004031D422E432E4C2E003062
:100C8800F3000030F2000030F1000030F000D02E08
:100C98009630F9005C2E0130F4007408F907013031
:100CA8000310FD0CFC0CFB0CFA0CFF3E031D542E2C
:100CB800FE307D05031D612E622E4F2E7E2E0130E3
:100CC800F4007408F9070130FA07003003180130FE
:100CD800FB07003003180130FC070030031801300F
:100CE800FD0701300310FD0CFC0CFB0CFA0CFF3E59
:100CF800031D762EFF307D05031D832E842E632E63
:100D0800902E0130F9020130F4000310FA0DFB0DAA
:100D1800FC0DFD0DF40B892EFC1B932E942E9A2EA0
:100D2800023079020318992E9A2E852E79189D2E55
:100D38009E2EA62EFF30FA05FF30FB057F30FC05FE
:100D4800FF30FD050310F90C7908F400F501F601F0
:100D5800F70118300310F40DF50DF60DF70DFF3EF1
:100D6800031DAE2E7408FA047508FB047608FC040B
:100D78007708FD0478080319C22EC32EC82EF31F66
:100D8800C62EC72EC82EFD177D08F3007C08F2007A
:100D98007B08F1007A08F00008000A128A1500267C
:100DA8000A128A11831203132308DC002208DB00CD
:100DB8002108DA002008D9004630B8001F30B700F3
:100DC800D830B6000030B5004530A3009C30A200F2
:100DD8004030A1000030A0005C08A7005B08A60016
:100DE8005A08A5005908A4000A128A1127200A12D5
:100DF8008A11831203132308BC002208BB002108B0
:100E0800BA002008B9000A128A116C230A128A1142
:100E1800831203133808E3003708E2003608E100BC
:100E28003508E0004130F300F030F2000030F10006
:100E38000030F0006308F7006208F6006108F5006A
:100E48006008F4000A128A155E270A128A1103182C
:100E58002E2F2F2F332F831203130614512F831293
:100E680003136308F3006208F2006108F1006008E8
:100E7800F0004130F700F030F6000030F5000030A7
:100E8800F4000A128A155E270A128A1103184D2FD8
:100E98004E2F512F83120313061083120313630876
:100EA800F3006208F2006108F1006008F0000A121D
:100EB8008A117D270A128A11710883120313DE0032
:100EC8007008DD000B30A0005E08A2005D08A100DC
:100ED8004F300A128A113F250A128A114F308312A5
:100EE8000313DF005F080A128A15A7250A128A1160
:100EF80008000310720D730DF9007908031D852F82
:100F0800862F8F2F0030F3000030F2000030F10000
:100F18000030F000F22F7008F4007108F500720834
:100F2800F6007308F7001F300310F70CF60CF50CE9
:100F3800F40CFF3E031D982F7408F800F217FF30D9
:100F4800F005FF30F105FF30F2050030F30596306B
:100F5800F902F91FB02FB12FCB2F7908803A973EAD
:100F68000318B72FB82FB92F862F01300310F30CB1
:100F7800F20CF10CF00CFF3E031DBA2F0130F40007
:100F88007408F907031DC92FCA2FB92FE22F203083
:100F98007902031CD02FD12FDD2F862F0130F400CA
:100FA8000310F00DF10DF20DF30DF40BD42F0130F9
:100FB800F9027908031DE12FE22FD22F78080319CF
:100FC800E62FE72FF22FF009F109F209F309F00AE9
:100FD8000319F10A0319F20A0319F30A0800413048
:100FE800831203139F00831603139F171F129F1268
:060FF80008000134013481
:1010000008308A000408840A82070034013400345E
:101010000A34003464340034E834033410342734A0
:06102000253464340034A5
:101B3A00F000831203130C1EA32DA42D9E2D7008F2
:101B4A0099000800F200B52D7208840000080A12F4
:101B5A008A159D250A128A150130F1007108F207CB
:101B6A007208840083130008031DBC2DBD2DA92D06
:101B7A000800831603138717071333309900831657
:101B8A0003178711831603131815181283120313E8
:101B9A00981718168316031398168312031318132B
:101BAA008316031318130800F800F401F5017008EE
:101BBA00F200F3017208F6007308F700781CE62DAC
:101BCA00E72DED2D7608F4070318F50A7708F507CF
:101BDA0001300310F60DF70DFF3E031DEE2D031025
:101BEA00F80C7808031DFA2DFB2DE32D7508F1007A
:101BFA007408F0000800831203139F121F129F112A
:101C0A001F119F149F180A2E0B2E072E1E08A400C0
:101C1A00A5012408A500A401831603131E08831234
:101C2A0003132407F0000030031801302507F100E0
:101C3A00F201F11BF2037208F30001300A128A1151
:101C4A0019260A128A15730883120313A30072084D
:101C5A00A2007108A1007008A000080078087904A1
:101C6A000319382E392E682EFD01FD0A472E013040
:101C7A000310F80DF90DFF3E031D3D2E0130FC0047
:101C8A007C08FD07F91F4A2E4B2E3C2E79087B0251
:101C9A00031D512E78087A02031C542E552E5B2EF2
:101CAA007808FA027908031CFB03FB0201300310CF
:101CBA00F90CF80CFF3E031D5C2E0130FD02031DDA
:101CCA00672E682E4B2E7B08F9007A08F800080068
:101CDA00F501F601700871040319742E752EAC2EE5
:101CEA00F701F70A832E01300310F00DF10DFF3EC4
:101CFA00031D792E0130F4007408F707F11F862EB0
:101D0A00872E782E01300310F50DF60DFF3E031DC8
:101D1A00882E71087302031D942E70087202031C28
:101D2A00972E982E9F2E7008F2027108031CF30357
:101D3A00F302751401300310F10CF00CFF3E031D81
:101D4A00A02E0130F702031DAB2EAC2E872E76088B
:101D5A00F1007508F00008001F3083160313A20073
:101D6A007130A1001D30A000A00BB92EA10BB92E15
:101D7A00A20BB92EC02E8B170B17831603138C16C2
:101D8A00831203138C128316031381110111811418
:101D9A00011081120B118B1686018801FF30831204
:101DAA000313880006140A128A15BE250A128A1518
:101DBA000A128A11F3270A128A15831203136A0375
:101DCA00031DE82EE92EEA2EE22E6A08031DEE2EE6
:101DDA00EF2EE22E6B03031DF32EF42EF62E0614BD
:101DEA00E22E6B08031DFA2EFB2EE22E0610E22EBF
:101DFA000A128A1112288C1E032F042F342F981CC2
:101E0A00072F082F0A2F1812181654301A06031D06
:101E1A000F2F102F142F8B16EA01EA0A332F4630A0
:101E2A001A06031D192F1A2F1D2F8B12EA01332FA1
:101E3A006A08031D212F222F332F31301A06031D62
:101E4A00272F282F2B2FEB01EB0A332F30301A06BE
:101E5A00031D302F312F332FEB01332F8C120B1D23
:101E6A00372F382F532F053081000B110130E80727
:101E7A000318E90A0030E9078830680613300319A5
:101E8A006906031D492F4A2F532F0A128A11D12698
:101E9A000A128A1583120313E801E9016708FF0091
:101EAA0066088A0065088400640E8300FE0E7E0EB2
:101EBA00090000307005F80000307105F900803023
:101ECA007205FA007F307305FB007B087A047904F7
:101EDA007804031D712F722F7A2F0030F30000301F
:101EEA00F2000030F1000030F00000307405F80014
:101EFA0000307505F90080307605FA007F307705E5
:101F0A00FB007B087A0479047804031D8D2F8E2F39
:101F1A00962F0030F7000030F6000030F500003050
:101F2A00F400F31F992F9A2FBE2F0030F8000030CB
:101F3A00F9000030FA008030FB007008F8027108DE
:101F4A00031C710FA92FAA2FF9027208031C720F22
:101F5A00AF2FB02FFA027308031C730FB52FB62FD9
:101F6A00FB027B08F3007A08F2007908F10078088E
:101F7A00F000F71FC12FC22FE62F0030F800003003
:101F8A00F9000030FA008030FB007408F802750886
:101F9A00031C750FD12FD22FF9027608031C760F76
:101FAA00D72FD82FFA027708031C770FDD2FDE2FE1
:101FBA00FB027B08F7007A08F6007908F500780832
:101FCA00F4008030F3068030F70677087302031DA9
:101FDA00F82F76087202031DF82F75087102031D87
:101FEA00F82F740870020318FB2FFC2FFE2F031022
:061FFA00FF2F0314080094
:08400000FF3FFF3FFF3FFF3FC0
:04400E00F22FFF3F4F
:00000001FF
