:04000000AEEF3BF034
:1076BA00C0F9A4B0999282F88090C584C5B468EFE5
:1076CA003BF06AEF3BF063EF3BF01200C582C5B2B4
:1076DA0071EF3BF073EF3BF06CEF3BF01200C580AB
:1076EA00C5B07AEF3BF07CEF3BF075EF3BF0120050
:1076FA00016E01C0C9FFC7B085EF3BF087EF3BF0D1
:10770A0080EF3BF08AEC3BF01200C7B48FEF3BF0FE
:10771A0091EF3BF08AEF3BF0C5AC96EF3BF098EF68
:10772A003BF09AEF3BF062EC3BF01200015003028F
:10773A00F3CF05F0F4CF06F001500402F350062609
:10774A0002500302F350062605C001F006C002F0FB
:10775A001200BA0EF66E760EF76E000EF86E00EE96
:10776A0032F010EE0AF00900F5CFEEFFE550E150D5
:10777A00FAE10001A7EF3CF0026E74EC3BF0D00E88
:10778A007DEC3BF002507DEC3BF06BEC3BF0D10E14
:10779A007DEC3BF0D6EC3BF0036E62EC3BF0035021
:1077AA001200C586C7A0DCEF3BF0DEEF3BF0D7EF57
:1077BA003BF0C9CF01F08AEC3BF0C58AC588C5B851
:1077CA00E9EF3BF0EBEF3BF0E4EF3BF00150120046
:1077DA00000E066E02BEF6EF3BF0F4EF3BF0FCEF54
:1077EA003BF0016C021ED8B0022A010E066E04BEDE
:1077FA0003EF3CF001EF3CF007EF3CF0036C041E92
:10780A00D8B0042A03500410D8B40EEF3CF010EF9D
:10781A003CF034EF3CF0010E056E18EF3CF0D890C6
:10782A0003360436052A04AE1DEF3CF01FEF3CF088
:10783A0014EF3CF00350015C04500258D8A028EF22
:10784A003CF02AEF3CF02EEF3CF00350015E04506E
:10785A00025AD89004320332052E1FEF3CF006502C
:10786A00D8B43AEF3CF03CEF3CF040EF3CF0016C0E
:10787A00021ED8B0022A01C001F002C002F01200B2
:10788A00000E066E04BE4EEF3CF04CEF3CF054EF97
:10789A003CF0036C041ED8B0042A010E066E02BE28
:1078AA005BEF3CF059EF3CF061EF3CF0016C021EDB
:1078BA00D8B0022A010E061A000E086E000E076ED4
:1078CA0003500410D8B46CEF3CF06EEF3CF096EF26
:1078DA003CF0010E056E76EF3CF0D8900336043684
:1078EA00052A04AE7BEF3CF07DEF3CF072EF3CF0F2
:1078FA00D890073608360350015C04500258D8A0C5
:10790A0089EF3CF08BEF3CF090EF3CF00350015EC6
:10791A000450025A0780D89004320332052E7DEFB4
:10792A003CF00650D8B49CEF3CF09EEF3CF0A2EF3E
:10793A003CF0076C081ED8B0082A07C001F008C03E
:10794A0002F01200050E0B6E720ED36E030E931226
:10795A00C78E770EC86E280EC66E770EC86E20EEDA
:10796A0032F010EE0CF0090EDBCFE3FFE806FCE282
:10797A009268000E956E939493969398939A000E3C
:10798A00946E93809382000E816E80808082000EB6
:10799A00296E010E286E000EC1EC3BF03E6E010E00
:1079AA00C1EC3BF03D6E020EC1EC3BF03C6E3CC0BC
:1079BA0009F0093A0F0E09160950166E176A3CC0EB
:1079CA0009F00F0E09160950186E196A16C001F04F
:1079DA0017C002F0000E046E0A0E036E9BEC3BF019
:1079EA00185001242C6E195002202D6E160E2C18D8
:1079FA002D10D8B403EF3DF005EF3DF00BEF3FF04B
:107A0A00170E2C182D10D8B40DEF3DF00FEF3DF0E6
:107A1A000BEF3FF02C502D10D8B416EF3DF018EFB5
:107A2A003DF00BEF3FF02C042D10D8B41FEF3DF0C2
:107A3A0021EF3DF00BEF3FF0020E2C182D10D8B4B9
:107A4A0029EF3DF02BEF3DF00BEF3FF0030E2C1822
:107A5A002D10D8B433EF3DF035EF3DF00BEF3FF08A
:107A6A00040E2C182D10D8A43DEF3DF03FEF3DF049
:107A7A0041EF3DF00BEF3FF029BE4DEF3DF02950AD
:107A8A0009E10B0E285CD8A04DEF3DF04FEF3DF019
:107A9A0055EF3DF0000E296E010E286E57EF3DF0AE
:107AAA00284A292A010E28141E6E1F6A1E501F100A
:107ABA00D8A462EF3DF064EF3DF031EF3EF08280F2
:107ACA00828C000E2F6E0A0E2E6E2EC001F02FC071
:107ADA0002F0000E046E0A0E036E45EC3CF001C083
:107AEA0020F002C021F02EC001F02FC002F0000EDB
:107AFA00046E0A0E036EEDEC3BF001C022F002C0E8
:107B0A0023F0FD0E2E24016EFF0E2F20026E000EB2
:107B1A00046E0A0E036E45EC3CF001C024F002C06C
:107B2A0025F0FD0E2E24016EFF0E2F20026E000E90
:107B3A00046E0A0E036EEDEC3BF001C026F002C0A3
:107B4A0027F0000E2B6E000E2A6E2BBEB6EF3DF00C
:107B5A002B5009E1280E2A5CD8A0B6EF3DF0B8EF09
:107B6A003DF0BAEF3DF027EF3EF081840C0E202461
:107B7A00D96E000E2120DA6EDF50836E0D0E096E6B
:107B8A00FC0EE82EFED7092EFCD7819481860C0EB6
:107B9A002224D96E000E2320DA6EDF50836E0D0E7A
:107BAA00096EFC0EE82EFED7092EFCD781962FBE51
:107BBA00E8EF3DF02F5009E1040E2E5CD8A0E8EF63
:107BCA003DF0EAEF3DF00EEF3EF081880C0E2424E2
:107BDA00D96E000E2520DA6EDF50836E0D0E096E07
:107BEA00FC0EE82EFED7092EFCD78198818A0C0E4E
:107BFA002624D96E000E2720DA6EDF50836E0D0E12
:107C0A00096EFC0EE82EFED7092EFCD7819A17EFD3
:107C1A003EF0829C828A0D0E096EFC0EE82EFED77B
:107C2A00092EFCD72A4A2B2A2BBE25EF3EF02B50D1
:107C3A0009E1280E2A5CD8A025EF3EF027EF3EF096
:107C4A00BAEF3DF02E06D8A02F062FBE31EF3EF038
:107C5A002FEF3EF06AEF3DF01E041F10D8A438EF54
:107C6A003EF03AEF3EF007EF3FF0000E2F6E0A0E9D
:107C7A002E6E2EC001F02FC002F0000E046E0A0E06
:107C8A00036E45EC3CF001C020F002C021F02EC08A
:107C9A0001F02FC002F0000E046E0A0E036EEDEC26
:107CAA003BF001C022F002C023F0FD0E2E24016E2B
:107CBA00FF0E2F20026E000E046E0A0E036E45ECB4
:107CCA003CF001C024F002C025F0FD0E2E24016E06
:107CDA00FF0E2F20026E000E046E0A0E036EEDECEC
:107CEA003BF001C026F002C027F082848288000E91
:107CFA002B6E000E2A6E2BBE8CEF3EF02B5009E144
:107D0A00280E2A5CD8A08CEF3EF08EEF3EF090EF62
:107D1A003EF0FDEF3EF081880C0E2024D96E000E55
:107D2A002120DA6EDF50836E0D0E096EFC0EE82EEE
:107D3A00FED7092EFCD78198818A0C0E2224D96E8F
:107D4A00000E2320DA6EDF50836E0D0E096EFC0ED4
:107D5A00E82EFED7092EFCD7819A2FBEBEEF3EF041
:107D6A002F5009E1040E2E5CD8A0BEEF3EF0C0EF02
:107D7A003EF0E4EF3EF081840C0E2424D96E000E0E
:107D8A002520DA6EDF50836E0D0E096EFC0EE82E8A
:107D9A00FED7092EFCD7819481860C0E2624D96E33
:107DAA00000E2720DA6EDF50836E0D0E096EFC0E70
:107DBA00E82EFED7092EFCD78196EDEF3EF082948D
:107DCA0082820D0E096EFC0EE82EFED7092EFCD714
:107DDA002A4A2B2A2BBEFBEF3EF02B5009E1280E34
:107DEA002A5CD8A0FBEF3EF0FDEF3EF090EF3EF0AC
:107DFA002E06D8A02F062FBE07EF3FF005EF3FF063
:107E0A003EEF3EF0000E826ED0EF3CF0000EC1EC69
:107E1A003BF03E6E010EC1EC3BF03D6E020EC1EC32
:107E2A003BF03C6E3CC009F0093A0F0E09160950A6
:107E3A001A6E1B6A3CC009F00F0E091609501C6E17
:107E4A001D6A1AC001F01BC002F0000E046E0A0E71
:107E5A00036E9BEC3BF01C500124306E1D50022037
:107E6A00316E050E30183110D8B43EEF3FF040EFB6
:107E7A003FF0CCEF3CF0060E30183110D8B448EF82
:107E8A003FF04AEF3FF0CCEF3CF0070E30183110CC
:107E9A00D8B452EF3FF054EF3FF0CCEF3CF0080E6D
:107EAA0030183110D8B45CEF3FF05EEF3FF0CCEF02
:107EBA003CF0090E30183110D8B466EF3FF068EF85
:107ECA003FF0CCEF3CF00A0E30183110D8B470EF06
:107EDA003FF072EF3FF0CCEF3CF00B0E3018311050
:107EEA00D8B47AEF3FF07CEF3FF0CCEF3CF00C0EC9
:107EFA0030183110D8B484EF3FF086EF3FF0CCEF62
:107F0A003CF00D0E30183110D8B48EEF3FF090EFE0
:107F1A003FF0CCEF3CF00E0E30183110D8B498EF89
:107F2A003FF09AEF3FF0CCEF3CF00F0E30183110D3
:107F3A00D8B4A2EF3FF0A4EF3FF0CCEF3CF0100E24
:107F4A0030183110D8B4ACEF3FF0AEEF3FF0CCEFC1
:107F5A003CF0110E30183110D8B4B6EF3FF0B8EF3C
:107F6A003FF0CCEF3CF0120E30183110D8B4C0EF0D
:107F7A003FF0C2EF3FF0CCEF3CF0130E3018311057
:107F8A00D8B4CAEF3FF0CCEF3FF0CCEF3CF0140E80
:107F9A0030183110D8B4D4EF3FF0D6EF3FF0CCEF21
:107FAA003CF0150E30183110D8A4DEEF3FF0E0EFA8
:107FBA003FF0E2EF3FF0CCEF3CF0828A8282060E7D
:107FCA000A6E130E096EAE0EE82EFED7092EFCD7E6
:107FDA000A2EFAD7829A8292060E0A6E130E096E3A
:107FEA00AE0EE82EFED7092EFCD70A2EFAD70BEFD3
:067FFA003FF000EF00F073
:020000040020DA
:08000000FFFFFFFFFFFFFFFF00
:020000040030CA
:0E00000000091F1EFF8185FF0FC00FE00F409B
:00000001FF
